:100000000C94C8020C94E5020C94E5020C94E502F1
:100010000C94E5020C94E5020C94E5020C94E502C4
:100020000C94E5020C94E5020C947F320C9452334C
:100030000C94E62C0C94E5020C94E5020C94E50279
:100040000C94E5020C94E5020C94E5020C94E50294
:100050000C94E5020C949E2D0C94E5020C94E502A0
:100060000C94E5020C94E5020C94E5020C94E50274
:100070000C94E5020C94E5020C94E5020C94E50264
:100080000C94E5020C94E5020C94E5020C94E50254
:100090000C94E5020C94E5020C94E5020C94E50244
:1000A0000C94E5020C94E5020C94E5022B4214003A
:1000B0001A000800150017001C0018000C001200A0
:1000C00013002A00E10004001600070009000A00DE
:1000D0000B000D000E000F002D002800E0001D0099
:1000E0001B00060019000500110010003600370043
:1000F0003800E500E3006C2421522C0022522943F1
:1001000000000000000000000000000001001E02CE
:100110001F022002210222022302240225022602BB
:1001200027024C00010035002E00010001000100F3
:100130003400340233003302380038020100010079
:1001400001000100010001002F003000310001001A
:1001500001000100290023520100010001000100FB
:10016000000000000000000000000000010054003A
:1001700055002400250026002E004A0052004B00A6
:100180006E00010001002D002E022100220023003C
:100190003600500051004F006F00010001006A005E
:1001A00027001E001F00200037004D0051004E00A8
:1001B000A8000100290001006D0001000100E0001D
:1001C00000000000000000000000000039000100F5
:1001D000450040004100420047004600A9000000E1
:1001E000490029780100010044003D003E003F0025
:1001F0000100AE00A80027782178207801000100D6
:1002000043003A003B003C0001006500AA0028784A
:1002100022782A780100010001000100010001009C
:1002200000000000000000000000000000010101CB
:1002300001010101010102020202020202020203A3
:100240000303030303030304040404040404050573
:100250000505050606060606070707070708080836
:1002600008090909090A0A0A0B0B0B0C0C0C0D0DE5
:100270000D0E0E0E0F0F0F1010111111121213137D
:100280001414151516161717181819191A1A1B1BF6
:100290001C1D1D1E1E1F2020212222232424252652
:1002A00026272829292A2B2C2D2D2E2F303132328A
:1002B000333435363738393A3B3C3D3E3F40414296
:1002C000434445464748494A4C4D4E4F505153547C
:1002D000555658595A5B5D5E5F6162646566686930
:1002E0006B6C6D6F7072737577787A7B7D7E8082B0
:1002F000838587888A8C8E8F91939596989A9C9EF9
:10030000A0A2A3A5A7A9ABADAFB1B3B5B7BABCBE08
:10031000C0C2C4C6C9CBCDCFD1D4D6D8DBDDDFE2D5
:10032000E4E7E9EBEEF0F3F5F8FAFDFF000000007A
:10033000000000002A2B2800000000000000000040
:100340000000000000000029000000002C1E3420E6
:10035000212224342627252E362D3738271E1F200C
:100360002122232425263333362E37381F04050651
:100370000708090A0B0C0D0E0F1011121314151695
:100380001718191A1B1C1D2F3130232D3504050693
:100390000708090A0B0C0D0E0F1011121314151675
:1003A0001718191A1B1C1D2F3130354C0000000086
:1003B000000000000000000000000000000000003D
:1003C000000000000000000000000000000000002D
:1003D0007E0F00D4FFFFFFC70000007810037700F6
:1003E000680061006C0065003400320000001203F8
:1003F000640065006E006D007500730068006900A0
:1004000000000403090409025B00030100A0FA09CB
:10041000040000010301010009211101000122442F
:100420000007058103080001090401000203000020
:10043000000921110100012222000705820320008A
:100440000107050303200001090402000103000065
:100450000009211101000122B600070584032000D4
:10046000011201000200000008C8AF0100000101F4
:100470000200010660FF0961A1010962150026FF63
:10048000009520750881020963150026FF0095205C
:1004900075089102C005010902A10185020901A1A7
:1004A0000005091901290815002501950875018124
:1004B000020501093009311581257F9502750881F2
:1004C0000609381581257F950175088106050C0AF6
:1004D00038021581257F950175088106C0C0050188
:1004E0000980A101850319012AB700150126B7006B
:1004F000950175108100C0050C0901A10185041941
:10050000012AA002150126A002950175108100C0E4
:1005100005010906A1018506050719E029E715006F
:1005200025019508750181020507190029EF1500BD
:10053000250195F075018102050819012905950528
:1005400075019102950175039101C005010906A18C
:1005500001050719E029E7150025019508750181B6
:10056000029501750881010507190029FF1500266C
:10057000FF00950675088100050819012905150079
:100580002501950575019102950175039101C00042
:1005900011241FBECFEFDAE0DEBFCDBF12E0A0E036
:1005A000B1E0E8E7FEE602C005900D92A237B10780
:1005B000D9F725E0A2E7B2E001C01D92A933B20746
:1005C000E1F70E945F120C94A9360C940000982F5A
:1005D000962B9430A8F44C3098F4E42FF0E09CE093
:1005E000699FE00DF11D112490E3899FE00DF11D3D
:1005F0001124EE0FFF1FE455FF4F8591949108954C
:1006000081E090E0089581E008950E940303089539
:1006100081E008950E94030308950E940A0308954B
:1006200008950E9410030895A6E0B0E0EAE1F3E027
:100630000C94823549835A839E8330917902898153
:100640009A8131111AC03E81332399F0222389F017
:100650000E94A808182F682F89819A810E94840817
:1006600069817A81812F0E94E30F2696E3E00C9442
:100670009E350E949608182FF3CF0E94A808698122
:100680007A81F1CFFC01262F4081518162817381F3
:10069000848195810E9414030895CF93DF93D82F0E
:1006A000C92F61E00E9442036D2F7C2F0E94050339
:1006B000DF91CF910895CF93DF93D82FC92F60E0BA
:1006C0000E9442036D2F7C2F0E941103DF91CF9176
:1006D000089581E008950E9469030895CF93C82F7B
:1006E0000E9478078C2F0E946B032FEF84E39CE01D
:1006F000215080409040E1F700C00000CF91089564
:1007000081E00E946E030E94C22D089580E00E9445
:100710006E030E94D32D08950F931F93CF93DF9301
:100720008C0161E00E944203EC01B8010E9428297B
:10073000882309F449C0B801CE010E940D03882323
:1007400009F442C0B801CE010E9434288823E1F1A7
:10075000B801CE010E9444238823B1F1B801CE0133
:100760000E941923882381F1B801CE010E94DB2069
:10077000882351F1B801CE010E947528882321F108
:10078000F8018581882381F0CA35FCE7DF0739F15C
:1007900078F4C130ECE7DE07F9F0C330FCE7DF079F
:1007A000C9F0C115DC4771F0C8010E9408030DC0F3
:1007B000CB35ECE7DE07B1F0CC35DC47A9F70E947A
:1007C000FA0CF2CF0E94800380E0DF91CF911F915D
:1007D0000F9108950E940C0D0E948603F5CF0E9490
:1007E000040DE2CF0E94080DDFCF0E94C22C0E94B0
:1007F0008F1B0E94240481E00E94601F08950E94C4
:10080000280480E00E94601F0E94C72C089508956C
:1008100081E008950895CF93DF93D82F0E940804B4
:10082000C82F882319F08D2F0E940A048C2FDF9186
:10083000CF9108950895CF93C82F0E9407048C2F5D
:100840000E940B04CF91089580E00E941B0408953C
:100850000E94FE2A0E941B040895CF930E94FE2A44
:10086000C82F809174028C1779F0C09374020E9493
:10087000522D609375027093760280937702909365
:1008800078028C2F0E941B04CF910895ADE0B0E058
:10089000ECE4F4E00C948335488759876A877B87BA
:1008A0008C879D8791110E94050C1F8286E0FE01B6
:1008B0003896DE01119601900D928A95E1F78D81AF
:1008C00081110DC029813A814B815C816D817E81CE
:1008D0008F810E944B0B2D96E2E00C949F35CE0148
:1008E00001960E944D038111EDCFF5CFFC0184816B
:1008F000813021F4808191810E94D108089566237E
:1009000029F00E94B2240E94882508950E94102593
:10091000FACFCF93C82F882399F08CEF8C0F813AB0
:1009200088F48C2F0E94A12B882329F08C2F0E9401
:10093000462C0E949D0C8C2F0E942F2C0E949D0CF7
:10094000CF91089580E28C0F883048F4C77081E021
:1009500001C0880FCA95EAF70E94E60BEFCF8BE53E
:100960008C0F833038F42C2F2452330BC9010E9492
:10097000342BE6CFE8E5EC0FEB3150F4F0E0EE0F6E
:10098000FF1FE952FE4F808191810E945A2BD8CFE0
:1009900083E38C0F8331A0F661E08C2F0E947F04EB
:1009A000CFCF882381F19CEF980F913A28F40E94D1
:1009B000462C0E949D0C089590E2980F983050F4B8
:1009C000877091E001C0990F8A95EAF7892F0E94FC
:1009D000EC0BEFCF9BE5980F933028F480E090E08C
:1009E0000E94342B089598E5980F9B3128F480E0FD
:1009F00090E00E945A2B089593E3980F933118F4D6
:100A000060E00E947F0408951F93CF93DF93182F17
:100A1000EB010E948904209739F4812F0E94D104B0
:100A2000DF91CF911F9108958FE99FE00197F1F732
:100A300000C000002197EFCF60E070E0893311F42F
:100A400060E570E00E9404050895882321F00E946B
:100A5000E60B0E949D0C0895882321F00E94EC0B68
:100A60000E949D0C0895A0E0B0E0E9E3F5E00C944D
:100A70007D356C01D62FC72FFC01158106810295AB
:100A80000F700E94DB0BE82E8823F9F0E12E112372
:100A9000E1F08C2F807F803461F080E28D0F883010
:100AA000F0F08C2F807E803221F4D230C0F0002311
:100AB000B1F08091640482FF12C082E00E94CD0CEC
:100AC0000E94DB0B91E0E82EE926EC2FE295EF7017
:100AD000C03CB0F5F0E0E555F94C0C946635E12CDE
:100AE000F4CF0C2F0F70C03110F00295007F11234E
:100AF00099F0002359F080E28D0F883010F0D11169
:100B000007C0802F0E94E60B0E949D0C8D2F51C0C4
:100B1000802F0E94F70BF8CF8D2F0E94D104002365
:100B200079F080E28D0F883010F0D11104C0802F51
:100B30000E94EC0B03C0802F0E94FD0B0E949D0CB5
:100B4000EE2089F00E94D70B80FD0DC0F6011582C2
:100B50000E94D10B0E94F207C6010E943F070E942B
:100B6000D10B0E94FE07CDB7DEB7E8E00C949935B3
:100B7000FC2FFF70FF2EC07FC03219F0F29480EF7F
:100B8000F822DD2341F0D130D1F1112309F444C022
:100B90000023F1F0BBCF8091640482FD15C01123C6
:100BA00059F0FF2029F08F2D0E94E60B0E949D0C2A
:100BB00080E00E948904C4CF80E00E94D104FF201D
:100BC00009F4BECF8F2DB4CF112369F0011104C0F9
:100BD0008F2D0E942505B4CF013009F0B1CF8F2DA4
:100BE0000E941D0CADCF0111ABCF8F2D0E942C05A3
:100BF0008F2D0E94290C8F2D0E940C0CA1CF112348
:100C000021F0063008F09CCFE3CF053008F098CFF4
:100C10008F2D0E942C0594CF0023D1F3D93349F4B2
:100C20002FEF87EE93E0215080409040E1F700C025
:100C300000008D2F0E94D10483CF8C2F869586953E
:100C40008370882369F0813009F07ACF8D2F9C2F33
:100C50009370111102C080E090E00E945A2B70CF77
:100C60008D2F9C2F9370111102C080E090E00E94A4
:100C7000342B66CF612F8D2F0E947F0461CF8C2F84
:100C80008370811134C0111124C04D2F42954695B7
:100C90004770440F440F8D2F8F70042E01C0880FB2
:100CA0000A94EAF7D071DD2341F02FE030E001C073
:100CB000220F4A95EAF7D22FD095C695C695C370F4
:100CC0008D2BC23071F0C33079F0C13039F00E9401
:100CD000CE070E94FE2A0E941B0432CF0E94C80742
:100CE000F8CF0E94D407F5CF0E94C507F2CF112399
:100CF00039F1C0FFEECF4D2F429546954770440F16
:100D0000440F8D2F8F70042E01C0880F0A94EAF7CC
:100D1000D071DD2341F02FE030E001C0220F4A9571
:100D2000EAF7D22FD095C695C695C3708D2BC230E9
:100D300069F0C33071F0C13031F00E942008C9CF92
:100D4000823038F2D8CF0E941A08C3CF0E942608FA
:100D5000C0CF0E94E007BDCFCF70112339F08C2F98
:100D60000E94F2078D2F0E942505B3CF8D2F0E9480
:100D70002C058C2F0E94FE07ACCFD23F31F170F4CE
:100D8000D03FB9F0D13FB1F1112309F44EC0002397
:100D900009F448C08D2F0E9489049BCFD33FE1F016
:100DA000D43F21F11111F3CF01114DC08C2F8F7160
:100DB000E1CF112341F0053008F08BCF8C2F8F71DC
:100DC0000E940E0886CF0530F7CF8C2F8F7111113E
:100DD000D1CF0E94F2077DCF112329F08C2F8F7184
:100DE0000E94E90776CF0E94E50773CF80916404E3
:100DF00082FD06C08C2F8F71112309F4BBCFE9CF80
:100E0000112331F063E08C2F8F710E94AF0C61CF02
:100E100081E00E94CD0C023008F45BCF82E00E949A
:100E2000CD0C57CF8C2F8F71D4CF002309F4BECFB8
:100E3000D93349F4EFEFF7EE23E0E150F0402040E2
:100E4000E1F700C000008D2F0E94D10442CF0F9324
:100E50001F93CF93DF93EC01688179818D810E948C
:100E6000DE088C010E942C080E94C407B801CE0144
:100E70000E943305DF91CF911F910F910895CF9379
:100E8000DF93EC018C81882399F0CE010E948C03C2
:100E9000811111C00E94DB0B882351F08D818823C2
:100EA00039F08091640482FF03C082E00E94CD0C7F
:100EB000DF91CF910895CE010E942707CE010E94B5
:100EC0005B03F6CF80E090E00E94342B80E090E05E
:100ED0000E945A2B0E94050C0E949D0C0E94A52581
:100EE0000E94882508950E945D2C0E946207089543
:100EF0000E94F40B0E9473070895282F92959F700B
:100F0000963091F060F4925F9F70923030F481E0FF
:100F1000203F79F030F4283E30F080E008959A5F69
:100F2000F3CF243FD1F7089581E0283EE0F3213F3D
:100F3000F9CF0895FC018481882339F08081918163
:100F40000E94D1080E947D07089580E00895A6E0E0
:100F5000B0E0EDEAF7E00C9483352696E2E00C94DD
:100F60009F35A7E0B0E0E7EBF7E00C9483352796D8
:100F7000E2E00C949F3508950E94BB0708950E94FB
:100F8000BC0780938D02089508950E94BF070895BD
:100F900090918D02892B0E94BF07089590918D0238
:100FA00089230E94BF07089590918D0289270E948E
:100FB000BF0708950E94BB0708950E94DA070895AD
:100FC0000E94DD0780938C02089580E00E94E00774
:100FD000089591E001C0990F8A95EAF7892F0E9440
:100FE000E007089521E030E001C0220F8A95EAF77A
:100FF00080918C02822B0E94E007089521E030E06E
:10100000A90102C0440F551F8A95E2F7CA018095D5
:1010100090918C0289230E94E007089521E030E03E
:1010200001C0220F8A95EAF780918C0282270E94E4
:10103000E007089590918C02892B0E94E0070895A3
:1010400090918C0289230E94E007089590918C0270
:1010500089270E94E007089508959B01677091E039
:1010600001C0990F6A95EAF763E0369527956A956E
:10107000E1F7B901660F771F260F371FFA01E20F5C
:10108000F31F40E050E0682F70E08191DF0111977D
:101090009B01042E02C0369527950A94E2F7217031
:1010A00021952827292328272C934F5F5F4F433012
:1010B000510559F708959C01A82FA77083E0369534
:1010C00027958A95E1F7C901880F991F820F931F11
:1010D000FB01E80FF91F40E050E080E0219130E093
:1010E0000A2E02C0369527950A94E2F7217033271D
:1010F000042E01C0220F0A94EAF7822B4F5F5F4F44
:101100004330510559F70895282F862F943068F4FD
:101110002C3058F4622F70E02CE0929F600D711D0E
:1011200011244AE752E00E942D080895292F943097
:1011300068F48C3058F490E06AE772E03CE0239F5A
:10114000800D911D11240E945B08089580E0089590
:10115000A0E0B0E0EEEAF8E00C947E357C0100916E
:101160008C0280918D02082BC5E0D0E010E0C80110
:101170000C2E02C0959587950A94E2F780FD09C070
:101180002197A8F7D12C8D2DCDB7DEB7E7E00C94D1
:101190009A35DC2EB7018C2F0E94EF0F019781F357
:1011A000F2CFCF93DF93D82FC92F0E94A8086D2FBD
:1011B0007C2F0E94EF0FDF91CF9108951F93CF9363
:1011C000DF93162FD72F90917902992341F0862F24
:1011D000972F0E94D108DF91CF911F910895882306
:1011E00081F0862F972F0E94A808C82F682F812F83
:1011F0009D2F0E948408612F7D2F8C2F0E94EF0F5E
:10120000EACF862F972F0E949608C82FF4CFE1E0EF
:10121000F0E0DF0102C0AA0FBB1F6A95E2F7BD0133
:10122000DF0102C0AA0FBB1F4A95E2F76A2B01C07B
:10123000EE0F2A95EAF7962F9823961302C08E2B6D
:101240000895E0958E230895242F462F682F8091CE
:101250008C020E9407090E94E00708950F931F93D4
:10126000CF93E0918E02C7E080918F028E1304C06D
:10127000CF911F910F9108950E2F10E0CE9FF00196
:101280001124E057FD4F20813181428153816481D7
:10129000758186810E94B107F8013196E770E4CF2D
:1012A0002091C8023091C9024091CA025091CB02EC
:1012B0006091CC027091CD028091CE020E94B10764
:1012C00008958091CE02803178F48091CD028823F8
:1012D00059F0E0918E0220918F023091C902409125
:1012E000C80257E02E1301C008956E2F70E05E9F74
:1012F000F0011124DF01A057BD4F14968C91149773
:10130000882361F111968C911197831327C08C91DA
:10131000841324C015968C91159781111FC01296C5
:101320008D919C91A091CA02B091CB028A1B9B0B1C
:10133000883C910598F48091CE028F7080618093F3
:10134000CE02EA56FD4F80818F708061808388ECE9
:1013500092E00E943F070E942E090895FB013196FA
:10136000E770C0CFE0918E0290918F0227E0E913E1
:1013700002C080E00895AE2FB0E02E9FF00111244E
:10138000E057FD4F3181361306C03081381303C05A
:101390003581341304C0FD013196E770E8CF81E058
:1013A00008958F929F92AF92BF92DF92EF92FF9239
:1013B0000F931F93CF93DF93CDB7DEB72D970FB663
:1013C000F894DEBF0FBECDBF8C0186E0F801DE01D0
:1013D000189601900D928A95E1F7F801E080F5806A
:1013E000A280B380848198EC892E92E0992E90910E
:1013F000CC0291111BC0882309F4FCC0FF2009F422
:101400003DC1C8010E949A07882309F437C187E0CB
:10141000F801D40101900D928A95E1F7C4010E9470
:1014200076040E9461090E945009E4C0D090CD0268
:101430002091CA023091CB02A501421B530BDD2043
:1014400009F4DBC0483C510508F0A6C0882309F424
:10145000D1C09091C90291808091CE02803108F074
:101460006BC0991228C09091C8029E1124C0F1103F
:101470005DC08F7080618093CE020E94500988EC1D
:1014800092E00E943F078091CE02F8018683F12C02
:101490008F2D2D960FB6F894DEBF0FBECDBFDF9116
:1014A000CF911F910F91FF90EF90DF90BF90AF9081
:1014B0009F908F900895F11039C040E0692D8E2DD6
:1014C0000E94B20940E0692D8E2D0E94B209F82ECB
:1014D0008111DDCF888599850E94D108292F229519
:1014E0002F70903450F49F70223080F0992399F03F
:1014F000F8019681903178F4CBCF2A5F2F7022309B
:1015000078F0C8010E943F07FD2CC2CF992319F043
:10151000882309F4BDCF805E883008F4B9CFF1CFBD
:10152000803F08F4B5CF815F8230F7CF8091CE0243
:1015300081608093CE02ABCF991207C09091C80210
:101540009E1103C0FF2009F479C0C8010E949A07C8
:10155000882309F493C0FF2009F490C08091CE0243
:10156000803288F02091C8023091C9023A832983E1
:10157000BC82AB829091CC029D831E828F83CE0170
:1015800001960E943F0787E0F801A8ECB2E00190C5
:101590000D928A95E1F745CF9091CE029031A0F45B
:1015A000488559856A857B858C859D850E94A7071E
:1015B00088EC92E00E943F0787E0F40111928A953F
:1015C000E9F70E94500963CF8823A1F02091C90256
:1015D00081812813BACF8091C8028E11B6CFF11045
:1015E000B4CF9683C8010E943F0787E0F4011192AF
:1015F0008A95E9F7FF24F3944BCF483C510508F056
:1016000041C08823B9F3FF20C9F19091C9028181BB
:1016100098132AC08091C8028E1126C08091CE02F4
:1016200080FD19C08031B8F08683807F803F39F01B
:101630008681982F907F905F8F70892B8683C80159
:101640000E943F0787E0F801A8ECB2E001900D92FC
:101650008A95E1F7E8CE87E0F801A8ECB2E00190C6
:101660000D928A95E1F7C6CFC8010E949A078111B1
:101670008ACF8091CE0281608093CE02C8010E9401
:101680003F07B8CF488559856A857B858C859D85C0
:101690000E94A70791CFAEE0B0E0E1E5FBE00C943B
:1016A0008235288739874A875B876C877D878E8755
:1016B000CE0108960E94D1098823B1F06C8566237B
:1016C00041F0288539854A855B857D858E850E9418
:1016D000B10717E080918E0290918F0289133EC06E
:1016E0002E96E3E00C949E3587E0FE013896DE01ED
:1016F000119601900D928A95E1F720918F02409109
:101700008E028C85882329F330E0C9010196877009
:10171000992750E08417950799F097E0929FD001A0
:10172000939FB00D1124A057BD4FFE01319601903B
:101730000D929A95E1F780938F020E942E09C9CFEE
:101740000E94780710928F0210928E0287E0E8ECD8
:10175000F2E0DF011D928A95E9F7BBCF189FC00127
:10176000112480579D4F0E94D109882309F4B8CFD6
:10177000E0918E021E9FF0011124E057FD4F208161
:101780003181428153816481758186810E94B107D4
:1017900080918E0290E001968770992780938E0247
:1017A00099CF8091F70286958695869508958091C8
:1017B000F702877008959091F702977081E0911178
:1017C00001C080E008958091230308959091230340
:1017D000982B909323030895982F9095809123033D
:1017E00089238093230308951092230308959091F1
:1017F0002203982B909322030895982F909580911F
:1018000022038923809322030895109222030895CE
:1018100008950E94080C08959091F802292F28231A
:10182000222331F0809589238093F8020E94090CCD
:10183000089508950E94190C08959091F902292F96
:101840002823281729F0982B9093F9020E941A0C4C
:1018500008959091F902292F2823222331F08095B1
:1018600089238093F9020E941A0C08958091F9024D
:10187000882329F01092F90280E00E941A0C089542
:10188000CF93DF93C091230380912203C82BD09183
:10189000F902DD2331F00E94802B81110E94360C69
:1018A000CD2B8C2FDF91CF910895CF93DF93C091F3
:1018B000B401D091B5010E94400C8883C091B4015D
:1018C000D091B50148E050E06FEE72E0CE010E9489
:1018D0000636892B59F088E0FE01AFEEB2E00190A8
:1018E0000D928A95E1F7CE010E940B2BDF91CF91EB
:1018F0000895CF93DF93C091B201D091B3010E94BC
:10190000400C8983C091B201D091B30140E250E014
:101910006FEC72E0CE010E940636892B59F080E20E
:10192000FE01AFECB2E001900D928A95E1F7CE0195
:101930000E94162BDF91CF9108958091D3018823C7
:1019400039F08091630487FF03C00E94790C0895E9
:101950000E94550C089508950E94AB0C0895909133
:10196000640492FF11C098E0899F90011124622BBA
:101970006093F7020E94F2078091F70286958695A0
:1019800086950E94AC0C08950E94F207089510926B
:10199000F70280E00E94AC0C08959091F7028095C8
:1019A00089238093F702282F277021110DC08917F2
:1019B00059F09091640492FF07C0869586958695AC
:1019C0000E94FE070E94C70C08959091640492FB48
:1019D000222720F9281769F080FB92F9909364047C
:1019E00080916304909164040E942E0D82E00E9415
:1019F000CD0C08958091640482FB882780F991E0E2
:101A000089270E94E50C089581E00E94E50C089565
:101A100080E00E94E50C08956FEF7FEF80E090E09A
:101A20000E948136089580E090E00E944D36853E08
:101A30009E4F19F40E94B028089580E0089582E036
:101A400090E00E944536089583E090E00E9445367C
:101A5000089584E090E00E944D360895BC0184E032
:101A600090E00E9481360895AB01BC018FE090E0C8
:101A70000E9475360895AB01BC0183E190E00E949D
:101A80007536089560E070E0CB010E943B0D08952B
:101A900060E070E0CB010E94340D0E94420D089579
:101AA000A8E0B0E0E6E5FDE00C94833565EE7EEF5E
:101AB00080E090E00E94813660E082E090E00E9449
:101AC000633681E080938D0261E083E090E00E94C4
:101AD000633660E074E184E090E00E94813660E06B
:101AE00086E090E00E94633660E087E090E00E942C
:101AF000633640E050E0BA0188E090E00E9475361D
:101B000060E083E290E00E94633660E08CE090E069
:101B10000E94633660E08DE090E00E946336198297
:101B20001A821B821C821D821E821F82188648E038
:101B300050E067E170E0CE0101960E94533640E02C
:101B400050E0BA018FE190E00E94753680E00E947B
:101B5000C9280E9408290E94480D2896E2E00C94AA
:101B60009F350E94500D0895682F8EE090E00E94EE
:101B700063360895A6E0B0E0E0ECFDE00C9481351A
:101B80000E94462D8C01809124039091250380179B
:101B9000910779F019821A820E94462DBC01498171
:101BA0005A8180E090E00E94460410932503009340
:101BB00024032696E4E00C949D35A4E0B0E0E3EE27
:101BC000FDE00C9483358091320390913303A09112
:101BD0003403B0913503BC01CD010E947E2D2496C3
:101BE000E2E00C949F350E94522D60933203709373
:101BF0003303809334039093350360932E037093E3
:101C00002F0380933003909331030895089508952E
:101C10000E94060E089508950E940B0E089587EE07
:101C200090E10E9476120E94070E0E94080E08950D
:101C300081E008950E94180E08950E94180E0895DC
:101C4000089508950E94200E0E94210E08950E947A
:101C5000130D811102C00E94B10D0E941F0D8093CF
:101C600036030E94290D90936404809363040E94BC
:101C700083210E94240D0E94C50780918C020E943E
:101C8000DD0708950E943D2D0E9418290E94AE1183
:101C90000E94270E0E941A040E94331F0E940C0EFD
:101CA0000895A6E0B0E0E7E5FEE00C9477350E94E9
:101CB0001A0E81110CC00E94BA0D0E948F1B0E9447
:101CC000C6250E942D042696EEE00C9493350E94C2
:101CD000C41126E2822E23E0922E640110E0F60168
:101CE000E190F1906F01812F0E94F1101F5F14307D
:101CF00009F44BC0E816F90691F38091360381FD93
:101D00000E94FA100E941D0E782E10E0812F0E9472
:101D1000F1107C01F401A190B1904F018A159B054F
:101D200071F1A826B92600E0CC24C394D12CC501BA
:101D30008C219D21892BD1F066246394C7018C21CD
:101D40009D21892B09F4612C772059F009831A838E
:101D50000E94462DBC0149815A8181E0962D0E9446
:101D60004604462D602F812F0E94B0160F5FCC0CC9
:101D7000DD1C0C30E1F6F4013297F182E0821F5F46
:101D8000143021F60E94F30D98CFE816F90609F0F9
:101D9000B4CF91CF1F93CF93DF930E94F40FEC0148
:101DA000811522E5920708F053C0811540E594079C
:101DB00008F0DDC0803E9105F8F48D3C910508F0F7
:101DC000AEC0883A910580F4853A910508F099C033
:101DD0008130910521F00497813A910550F4CE01AC
:101DE000DF91CF911F910895885A91094B9708F47C
:101DF0008BC0C0E0D0E0F3CF811550E49507F8F434
:101E0000C11580E2D80708F0CBC0C83ED10538F331
:101E1000CE019A9581159F4160F78D2F0E949810F1
:101E2000182FCE0199270E94F40F212F30E0322F76
:101E30002227E901CC27DF71C82BD92BD0CF9927D6
:101E40000E94F40FCC27DF70C82BD92BD06AC7CFE4
:101E5000803842E59407C8F5803652E5950708F0CA
:101E600067C0C03482E5D807B0F08C2F8695869580
:101E7000877020E2829FC0011124C37021E030E00E
:101E8000A90102C0440F551FCA95E2F7EA01C82B09
:101E9000D92BDC68A4CFC03252E5D50708F041C089
:101EA0008C2F8695869520E2829FC0011124C370F5
:101EB00021E030E0A90102C0440F551FCA95E2F7A6
:101EC000EA01C82BD92BDD688ACF803C52E5950703
:101ED00060F48F71C03AD24508F03FC090E0982F6F
:101EE0008827EC01C46FD06A7ACF805C92458097D6
:101EF00008F07FCFDC2FCC27CC27DF71C06FD06AF2
:101F00006ECFA497D0646BCFC85AD0E0CC0FDD1F42
:101F1000C35FDD4F0990D881C02DD46460CFD065F8
:101F20005ECFCF71D0E0DC2FCC27C16FD06A57CF06
:101F300086958695877020E2829FC0011124C37028
:101F400021E030E0A90102C0440F551FCA95E2F715
:101F5000EA01C82BD92BDA6842CF0E949810C82F0B
:101F6000D0E0DC2FCC27CC27DF71D06238CF8F7147
:101F70000E94981065E0D695C7956A95E1F7CF70F5
:101F8000D0E0DC2FCC27282F30E084FF05C054E0C0
:101F9000220F331F5A95E1F7C22BD32BD0691FCFE5
:101FA0008D2F8F710E949810182FCE0199270E94B3
:101FB000F40F212F30E0322F222722273F71282BC8
:101FC000392BE901D2CF462F672F743028F44C30DB
:101FD00018F40E943722089580E090E008950E944E
:101FE000E30F0E94CA0E0895803E9105D1F1C8F416
:101FF0008133910509F47FC048F48932910509F4D1
:102000006FC08A32910509F47DC008958933910526
:10201000E1F082389105C9F08533910509F45BC080
:102020000895843E9105D1F148F4823E910531F145
:10203000833E910541F181EE90E00895863E910541
:10204000C1F1873E9105E1F1089520916304237069
:10205000211165C02091640423FF14C089E290E03F
:1020600008952091630420FD43C03091640430FF43
:1020700009C024FF4EC080E090E0089520916304E1
:1020800022FDF7CF08952091630422FD45C03091D1
:10209000640430FD44C024FFF5CFEDCF20916404EB
:1020A00021FFF0CF8091630484FDE5CF87EE90E0BF
:1020B00008952091630423FFE5CF24FDDCCFF6CF04
:1020C0002091630423FD2EC03091640431FFE3CFDF
:1020D00084EE90E008952091630425FFD3CFBECF16
:1020E0002091630425FD21C02091640423FFCACF01
:1020F00089E390E008952091630426FFC3CF8AE22C
:1021000090E008952091630426FFBCCF81E390E026
:10211000089583EE90E0089582EE90E0089580EEB9
:1021200090E0089586EE90E0089585E390E0AACFD0
:102130009091630492FF10C041E0282F2471243055
:1021400009F040E031E0282F2871283009F030E014
:10215000431711F02CE0822793FF10C041E0282F95
:102160002471243109F040E031E0282F2871283112
:1021700009F030E0431711F02CE08227309164041D
:1021800030FF10C051E0282F2171213009F050E0BC
:1021900041E0282F2871283009F040E0541711F051
:1021A00029E0822731FF10C041E0282F2171213121
:1021B00009F040E031E0282F2871283109F030E0A3
:1021C000431711F029E0822794FD877E089580E06F
:1021D000089508950E94E910089508950E94ED1051
:1021E0000895E82FF0E0EE0FFF1FE359FB4F8081C9
:1021F00091810895089580EA8A95F1F7089500C0C5
:1022000008950E94FB100895F894E82FE295EF706E
:10221000F0E041A18F7021E030E0B90102C0660F0B
:10222000771F8A95E2F7CB01962F9095942391A37F
:1022300092A1892B82A378940895CF93DF93C3E46E
:10224000D2E089918F3F11F00E94041182E0CF34D7
:10225000D807B9F787EF0E94041186EF0E94041196
:1022600085EF0E94041184EF0E940411DF91CF9149
:102270000895AF92BF92DF92EF92FF920F931F9358
:10228000CF93DF93D82EE92EF62E8A01C62FD0E009
:10229000CD5BDD4F88818F3F09F453C0F894E82F60
:1022A000E295EF70F0E091A18F7021E030E001C085
:1022B000220F8A95EAF7892F822B81A382A120958C
:1022C000282322A378940E94FF108FE4A82E82E096
:1022D000B82EED2DFE2DAF01485F5F4FE12CB80108
:1022E00060957095D501DD905D0121913191BFEF31
:1022F000DB1689F18D2D82958F70805E90E0DC0178
:102300008C9190E0BD2DBF7002C095958795BA95D0
:10231000E2F7817081111FC0202B312BEE24E39452
:10232000CF010297DC012D933C934E175F07D1F646
:1023300088818F3F11F00E9404116E2D8F2D0E9415
:102340000111DF91CF911F910F91FF90EF90DF90DE
:10235000BF90AF90089526233723E2CF0E941D112E
:1023600088E0EDE6F4E0DF01982F1D929A95E9F7F9
:10237000E5E6F4E0DF011D928A95E9F784E00E942A
:102380001A120E94EA100895CF92DF92FF920F93E3
:102390001F93CF93DF93CDB7DEB728970FB6F8948E
:1023A000DEBF0FBECDBFFE01319688E0DF011D927A
:1023B0008A95E9F710E0CC24C394D12CFE2E0F2F80
:1023C000A601612F8F2D902F0E9439111F5FCC0C19
:1023D000DD1C1C30A9F748E050E06F2D702F85E61A
:1023E00094E00E94063621E0892BD1F420E044E0FD
:1023F0006DE674E085E694E00E941B12182F0E949F
:10240000EE10812F28960FB6F894DEBF0FBECDBF19
:10241000DF91CF911F910F91FF90DF90CF900895A2
:1024200088E0EF2DF02FA5E6B4E001900D928A959B
:10243000E1F7DDCF0895A0E0B0E0E1E2F2E10C9435
:102440007D35D82EE92EF62ED72F042FC22F22232A
:1024500079F081E0809339030E94462D90933803F0
:102460008093370380E0CDB7DEB7E8E00C94993570
:10247000C0903903CC20B1F3809137039091380399
:102480000E946F2D059770F310E0000F111FA80137
:102490006D2D7E2D8F2D9D2F0E940636892B41F0AC
:1024A000A8016D2D7E2D8F2D9D2F0E941336CC2DD2
:1024B000109239038C2FD7CF0E94510E08950E949D
:1024C000DF2C0E946D2F0E940F0E0E94872F0E940A
:1024D000420E0E94942F0E94992F0E945C120E942B
:1024E000B32F0E943B2E0E94220EF5CF90937302D1
:1024F000809372020895A0E0B0E0E1E8F2E10C946C
:102500007B35E82F71110DC0442321F0F0E0E45D2C
:10251000FD4F8491682F782FCDB7DEB7EAE00C9499
:102520009735262F30E0C72FD0E0F0E0442321F08C
:10253000E45DFD4FE491F0E086E0829F7001839FAF
:10254000F00C11240FEF10E0C701B8010E94FD3418
:10255000AB01220F331F65E5649FC001659F900D9D
:102560001124281B390BC22ECC0CC20EC8018C1BA7
:102570009D0B8E9F90018F9F300D9E9F300D1124DB
:10258000832FCC9EB001CD9E700D1124672F77272D
:102590005801A61AB70AAE9ED001AF9EB00DBE9EDE
:1025A000B00D11247B2F5801AC18B1086501CC9EE9
:1025B0005001CD9EB00CDC9EB00C1124AB2CBB2482
:1025C0000A191B090E9FE0010F9FD00D1E9FD00D11
:1025D00011246E2F43305105C9F09CEFE91693E0AA
:1025E000F90650F44130510509F496CF42305105B7
:1025F00089F07E2F6D2F90CF4430510571F0463019
:102600005105B9F3632F8B2F7E2F86CF6B2F732F3E
:102610008E2F82CF732F8D2F7FCF7D2F632FF8CFFB
:1026200041E00E947B1208959C0180E090E0269F8B
:10263000812D369F800D911D112408959C018230BB
:10264000910508F408959FEF213E8EE1380740F48C
:10265000C90145E0969587954A95E1F798E0980F6E
:1026600061E0E62FE90FFF27FF1FAF015595479562
:10267000842F449FF001459FF00DF00D11242E177B
:102680003F0738F49FEF940F961758F78FEF860F98
:1026900008954F3FE9F361E0640FF6CF4091BC012C
:1026A0005091BD0125E038E0429FC001439F900D4D
:1026B000529F900D1124875E994C9093BD01809399
:1026C000BC01890F0895982FE82F96FDE0958E2F75
:1026D0008F7096FD8F5FE695E695E695E670F0E0E3
:1026E000ED5AFD4F2181289F202D812D1124229507
:1026F0002F708295807F282B8081820F97FD819596
:1027000080580895622F0895E42FF0E0EE0FFF1F28
:10271000EC5CFE4F6081621B0895E42FF0E0EE0F49
:10272000FF1FEC5FFE4F61A9621B0895322F50E03E
:10273000FA01EE0FFF1FEC5FFE4F91A9905297FD3B
:102740009195440F551FFA01EC5CFE4F2081231B2D
:10275000330B290F311D97FD3A95620F0895EF92C3
:102760000F931F9310E09801220F331F200F311F8A
:10277000359527956E2D620F1F910F91EF9008955B
:102780000F93CF93DF93D72FC82FB90147FD419502
:1027900028E330E0241B310947FD3395229FA00137
:1027A000239F500D500D1124669FC001679F900D0F
:1027B000900D1124840F951F0E941E13982F990FBE
:1027C000692F680F600F7D2F8C2FDF91CF910F91B4
:1027D0000895A4E0B0E0EFEEF3E10C94833520918E
:1027E000790430E1230F08F42FEF60E1822F90E0AD
:1027F0000E941413BC0188EB9BE00E94FD34CB01C6
:10280000A0E0B0E0BC01CD012496E2E00C949F353D
:10281000EF92FF920F939701201B31092F3F310553
:1028200019F010F02FEF30E0322F3095482F430F82
:1028300008F44FEF842F620F0F91FF90EF900895EF
:102840009091DE03982B9093DE030895FC019B0189
:10285000009719F4832F80780895AC0197FF04C086
:1028600044275527481B590BB901640F751F37FDC5
:102870000FC0C901841B950BA5E0880F991FAA956D
:10288000E1F70E94113580E2861BF7FD81950895DE
:10289000CB0165E0880F991F6A95E1F7BA01621BC9
:1028A000730B0E94113580E6EFCF0F931F93CF93E8
:1028B000DF93D62F172FC82FBA01C901212F201B54
:1028C000022F0E942614982F990F990F782F791BA9
:1028D000700F719F712D11246D2F8C2FDF91CF916F
:1028E0001F910F910895FF920F931F93CF93DF9342
:1028F000D62FC72F182FBA01C901F12EF01A0E9446
:102900002614982F990F990F082F091B0F0D019F5F
:10291000012D11246D2F7C2F802FCDB7DEB7E5E080
:102920000C949C35EF920F931F93CF93DF93D62F88
:10293000172FC82FBA01C9010E19010F0E942614C2
:10294000702F781B719F712D11246D2F8C2FDF91AB
:10295000CF911F910F91EF900895EF920F931F93D6
:10296000CF93DF93D62FC72F182FBA01C9010E19A5
:10297000010F0E942614081B019F012D11246D2FA9
:102980007C2F802FDF91CF911F910F91EF900895B1
:1029900048E050E067E170E085E794E00E9453363C
:1029A0001092DE0308950E9410130895A0E0B0E095
:1029B000ECEDF4E10C947635882E762E062F10E09F
:1029C0002CE0829FC00111249C012C5F3E4FF90135
:1029D000E00FF11FC081CF3FB1F1A12CB12C612CD0
:1029E000D0E09E01220F331FA9014C5C5E4F6A01AB
:1029F000E901CB5CDE4F845F9B4F080F191F750107
:102A0000912C88E2582EF701EC5FFE4F20812F3F7A
:102A100059F086101DC079101BC0F801208130E2EA
:102A2000230F08F42FEF208393947FEFE71AF70A20
:102A30008CE09812E8CF6394ECE0AE0EB11CF0E3AA
:102A4000AF16B104E1F6CDB7DEB7EFE00C949235E6
:102A500030E0F6014081F901EE0FFF1FEC5CFE4F04
:102A60008081481B550B8881220F331FF901EC5FD1
:102A7000FE4F91A9682F691B770B9B01449FB00102
:102A8000459F700D700D1124229FC001239F900D52
:102A9000900D1124860F971F0E941E13382F893224
:102AA00018F6252D231B08F420E0F701E45FFB4F07
:102AB000213108F020E13081320F08F43FEF3083FC
:102AC000B3CF0E94C8140895E5E7F4E08DE2808357
:102AD0008091D4019091D501A091D60181839283F8
:102AE000A3838FE784838FEF85830E94C8140895A2
:102AF00080E008950F931F93CF93DF93C82FD62FB5
:102B00008A010E9478159CE0C99F900111242C5FD6
:102B10003E4FF901ED0FF11D90819F3F29F0F80123
:102B2000E80FF11D90838F5FDF91CF911F910F917F
:102B30000895E0916102F091620209950895E09193
:102B40005D02F0915E0209950895A0E0B0E0EBEA25
:102B5000F5E10C947E35EC01FC01E857FE4F8081D5
:102B60006823662349F1D09077040091780410918E
:102B70007604E12EF12C0E944E13482FC7018C548D
:102B80009F4F68E671E00E9411358E199F0997FDED
:102B9000039695958795959587954370612F489FE6
:102BA000600D11247D2D802F0E94D314462F672F96
:102BB000282FCE010E949F15CDB7DEB7E7E00C9419
:102BC0009A35E0915F02F091600209950895A8E0BE
:102BD000B0E0EDEEF5E10C947435FC01F090780472
:102BE000AF2CB12C8501000F111F0A0D1B1D16956E
:102BF000079516950795302E8FEF90E0B5010E944E
:102C00001135562E8281882371F040E060E080E02B
:102C10000E94E115ECE0F4E080E3DF011D928A956B
:102C2000E9F71092DD038091DC038F5F8093DC0372
:102C30008CE0882E84E0982E412C3501601A710AB0
:102C4000E090DD03EE2079F06401E12CD6018C9157
:102C5000882389F08F1578F49091DC0395110BC0CF
:102C600081508C9308C00E94F6358535954064F7F5
:102C7000F401F0826401AE014F5F5F4F642D8E2D31
:102C80000E947A158823D1F0F6018081E981F0E075
:102C9000282F30E0381608F052C0201B310B209F3F
:102CA000C001219F900D309F900D1124B3010E940F
:102CB000FD34262F4F2DCF010E949F15E394FCE099
:102CC000CF0ED11C24E0E212C1CF43948FEF881ABB
:102CD000980AACE04A12B4CF8091DC03851102C09F
:102CE0001092DC038091DD038F5F8D31B0F1109283
:102CF000DD0324E234E083E048E154E09FEF9F0DE0
:102D0000D901ECE0F4E0833021F464A1F61201C0B3
:102D100094A36C916F1520F09C931C96FC921C97C9
:102D2000319611964E175F0771F781502C5031097B
:102D30008111E6CF80E02896E1E10C9490352A9D40
:102D4000C0012B9D900D3A9D900D1124B8010E9459
:102D5000FD34462F20E060E0AECF8093DD03EACF64
:102D6000A8E0B0E0E6EBF6E10C947B35E82EB62E59
:102D7000A42E0E94180E882309F457C0F12CAA2013
:102D800041F0AE014F5F5F4F6B2D8E2D0E947A1583
:102D9000F82E0F2D10E08091DF03800F912F911DF1
:102DA00009976CF188E090E06C01C01AD10AB80173
:102DB00060527C4FA60180EE93E00E941336B8016A
:102DC00068517C4FA60188EE93E00E941336A6015D
:102DD000440F551FB801660F771F68507C4F88EF6E
:102DE00093E00E941336B80160517C4FA60180EF3A
:102DF00093E00E94133688E08F198093DF031091CF
:102E0000DF03DE01119640E0242F210FF41211C0E0
:102E10002093DF03AA2049F0809175048C7F8035D0
:102E200021F46B2D8E2D0E94D6142896EAE00C9486
:102E300097355D91852F90E030E0B90161527C4F6C
:102E4000FC01EE0FFF1FEC5CFE4F0081FB010183D4
:102E5000880F991FFC01EC5FFE4F81A9FB01818760
:102E6000518BF901EE0FFF1FE152FC4F128E118EB4
:102E70004F5FCACF81E008950E943A17089599E004
:102E8000899F802D1124980F9B3208F09AE20895B3
:102E9000A0E0B0E0EEE4F7E10C9475353C012B01C5
:102EA000FC0180810E943F17C82F192F609179047F
:102EB000669580917D0490917E040E941413F82EF3
:102EC000D0E0CE01880F991F9C012C5F3E4F690115
:102ED000C11748F081E01A3208F080E0CDB7DEB7C4
:102EE000E0E10C949135FE01E857FE4F8081F3013B
:102EF00091818923882379F1F60180A9282F205711
:102F0000330B590181A9E82FE052FF0B4F01AA9C16
:102F10009001AB9C300D300D1124EE9FC001EF9F4E
:102F2000900D900D1124820F931F0E941E13082FE5
:102F3000609176047091770480917804EF2C94016D
:102F4000A501F20109950E94D314462F672F282F5F
:102F5000CE010E949F15F2E0CF0ED11C2196B8CF72
:102F600062E974E10E94481708956DEA74E10E94D5
:102F7000481708956FEA73E10E94481708958F92E9
:102F80009F92BF92CF92DF92EF92FF920F931F9387
:102F9000CF93DF936C014B01FC0180810E943F17AE
:102FA000C82F192F60917904669580917D049091C6
:102FB0007E040E941413B82ED0E0CE01880F991F12
:102FC0009C012C5F3E4F7901C11780F081E01A32DD
:102FD00008F080E0DF91CF911F910F91FF90EF906B
:102FE000DF90CF90BF909F908F900895FE01E8579B
:102FF000FE4F8081F601918189238823C1F0F7017A
:1030000021A92052330B40A94057550B60917604FB
:1030100070917704809178040B2DF40109950E943A
:10302000D314462F672F282FCE010E949F15F2E060
:10303000EF0EF11C2196C8CF65E574E10E94BF1721
:10304000089563E774E10E94BF17089560EC73E18F
:103050000E94BF170895A0E0B0E0E1E3F8E10C940E
:103060007D357C016B01FC0180810E943F17C82FD8
:10307000192F609179046695669521E0620F08F436
:103080006FEF80917D0490917E040E941413082FAD
:10309000D0E0C11748F081E01A3208F080E0CDB7E7
:1030A000DEB7E8E00C949935FE01E857FE4F8081C9
:1030B000F70191818923882391F0609176047091C2
:1030C000770480917804202F4C2FF60109950E94F7
:1030D000D314462F672F282FCE010E949F152196CB
:1030E000D8CF62E873E10E942B18089564E873E179
:1030F0000E942B1808956DE873E10E942B18089523
:1031000066E973E10E942B180895AAE0B0E0EBE8AD
:10311000F8E10C947335382E2B0149835A83FB0157
:1031200080810E943F179D83F0918104FE83282FA8
:1031300030E03A872987C901880F991FFC01EC5FAD
:10314000FE4F6F01832D90E09C012F5F3F4F38872A
:103150002F838D819985981748F081E0ED81EA32BF
:1031600008F080E02A96E2E10C948F35E985FA8533
:10317000E857FE4F8081F20191818923882309F16C
:10318000F0917604FB83209177042C838F819885BE
:103190008F579B4F3C01232C10E0FE812F16D8F057
:1031A00020917804129F112D11246B817C81812F35
:1031B0000E94D314462F672F282F89859A850E9455
:1031C0009F1529853A852F5F3F4F3A87298732E03F
:1031D000C30ED11CBECFF30181913F01F601A0A81F
:1031E000A81ABB0881A8F3018781881A9908AA9CAC
:1031F0009001AB9C300D300D1124889CC001899C3E
:10320000900D900D1124820F931F0E941E13082F02
:103210006091790421E0620F08F46FEFF301EE0F83
:10322000FF1FE158F440858996890E9414137C01A0
:103230009401A5016B817C81812FE981FA81099537
:103240006B837C83182F2394A8CFBC012091810429
:1032500031E0231B08F420E048E054E1822F0E9473
:1032600085180895BC0148E054E180E00E9485186B
:103270000895A0E0B0E0EFE3F9E10C947D357C0126
:10328000FC0180810E943F17C82F192F609176049E
:1032900070917704809178040E94D314062FD72E62
:1032A000C82ED0E0C11748F081E01A3208F080E063
:1032B000CDB7DEB7E8E00C949935FE01E857FE4F34
:1032C0008081F70191818923882331F02C2D402FB3
:1032D0006D2DCE010E949F152196E4CFA0E0B0E0B5
:1032E000E4E7F9E10C947A357C01FC0180810E94CD
:1032F0003F17C82F192FD0917604A0907704B09073
:1033000078046D2F7A2D8B2D0E94D314062FD72E83
:10331000C82E809179046D2F680F7A2D8B2D0E9415
:10332000D314B62EA72E982ED0E0C11748F081E016
:103330001A3208F080E0CDB7DEB7EBE00C9496359A
:10334000FE01E857FE4F9081F70181818923882390
:1033500059F0292D4B2D6A2D90FD03C02C2D402FA7
:103360006D2DCE010E949F152196DFCFA0E0B0E029
:10337000ECEBF9E10C947D357C01FC0180810E942D
:103380003F17192FD0907704C090780420917904CA
:1033900000E4029F012D1124C82FD0E0C11748F08E
:1033A00081E01A3208F080E0CDB7DEB7E8E00C9497
:1033B0009935FE01E857FE4F8081F70191818923FD
:1033C0008823B9F0FE01EE0FFF1FEC5FFE4F81A9CD
:1033D00082958F7060917604809F600D11247D2D01
:1033E0008C2D0E94D314462F672F282FCE010E94C8
:1033F0009F152196D3CFA0E0B0E0E1E0FAE10C9474
:103400007C356C01FC0180810E943F17F92EE09011
:103410007704B09078042091790400E4029F012D94
:103420001124C82FD0E010E0CF1550F081E099E2D0
:103430009F1508F480E0CDB7DEB7E9E00C9498352D
:10344000FE01E857FE4F8081F60191818923882390
:10345000E9F0FE01EE0FFF1FEC5FFE4F20A9209F59
:10346000C001219F900D112425E0959587952A95FF
:10347000E1F760917604680F7E2D8B2D0E94D314A6
:10348000462F672F282FCE010E949F152196CCCF63
:10349000A0E0B0E0EEE4FAE10C947D357C01FC01A3
:1034A00080810E943F17C82F192F00917604D09178
:1034B0007704D09078046091790466956695669556
:1034C00080917D0490917E040E9414130E946313E6
:1034D000805887FD8195880F282F3D2D239F212D12
:1034E0001124822F602F7D2F0E94D314062FD72EF8
:1034F000C82ED0E0C11748F081E01A3208F080E011
:10350000CDB7DEB7E8E00C949935FE01E857FE4FE1
:103510008081F70191818923882331F02C2D402F60
:103520006D2DCE010E949F152196E4CFCF92DF92A0
:10353000FF920F931F93CF93DF938C01FC01808147
:103540000E943F17F92EF801928191112DC06091D0
:10355000790420E1620F08F46FEF80917D0490916F
:103560007E040E9414136AE070E00E94FD34892BEF
:1035700071F40E944E13FAE28F9F90011124F8011A
:103580006181832F932F990F990B0E94A51581E0DC
:10359000F9E2FF1508F480E0DF91CF911F910F91C0
:1035A000FF90DF90CF900895C82FD0E0CF2CD12C82
:1035B000CC15DD0564F7F8016181CE010E94A515E7
:1035C0002196F6CFA0E0B0E0E8EEFAE10C94753574
:1035D000EC0188810E943F17582E092F8A81882389
:1035E00061F040E060E080E00E94E115ECE0F4E092
:1035F00080E3DF011D928A95E9F78881882399F19C
:10360000C12CD12C612C9AEA492E76018CE0782EBF
:10361000F701EC5FFE4F5F01E081E51558F0E01720
:1036200048F4F0E0E857FE4F8081998189238111A9
:1036300033C063947A94BFEFEB1AFB0A7110E8CFA2
:10364000E4E2CE16D10431F0FCE0CF0ED11C28E02C
:103650002615D8F681E00A3208F080E0CDB7DEB753
:10366000E0E10C94913580913D0490913E040E94DC
:103670006F2D9C0181E02931310508F480E08093B1
:103680003C042931310508F4BBCF0E94462D9093AC
:103690003E0480933D04B4CFC701845F9B4F4C012F
:1036A000DC011C91612F25E5621B08F460E0842D8C
:1036B000861B682F70917704242D210F08F42FEFBB
:1036C00030917804822F880F820F8E5F282F239FDE
:1036D000212D1124822F0E94D314462F672F282FCB
:1036E000D5018C9190E00E949F1580913C04882325
:1036F00009F49FCF21E0121B08F410E0D4011C93C1
:1037000098CF81E008950E94811B0895FC0180817B
:1037100081500E943F17692F0E94831B0895A4E0E7
:10372000B0E0E5E9FBE10C94763520910804309196
:10373000090440910A0450910B0429833A834B8376
:103740005C83CA01B9010E947E2D6B017C010E943D
:10375000522D609308047093090480930A04909397
:103760000B04A091DF03EFEDF3E02A2F30E04FEFE1
:103770005FEF60E070E04C195D096E097F09A313EB
:103780003FC02093DF030E94DD0D69837A838B8322
:103790009C83613E73498440910508F044C0809148
:1037A0007504482F43704983442319F08695869504
:1037B00089838091B601823009F430C3B0F581115C
:1037C0003BC01092B7018091080490910904A09128
:1037D0000A04B0910B0480937D0490937E04A0931F
:1037E0007F04B093800489E2EFEDF3E0A1E8B4E058
:1037F00001900D928A95E1F781E08093B60118C09F
:10380000818D928D4C01A12CB12C481559056A056A
:103810007B0520F421503F5F3296B1CF8C0D9D1D6A
:10382000928F818FF8CF1982C4CF833009F401C3FE
:103830002496EFE00C9492358091BA015981581387
:1038400026C020917504237030E04091BB0150E008
:1038500081E02417350709F480E081708093B90175
:1038600080917A049091B801981739F08093B8014B
:1038700040E060E080E00E94E1158981883108F035
:1038800014C1E82FF0E0E954F94C0C94663581E05E
:10389000E4CF8091B901811107C08091B7018F5F9A
:1038A0008093B70183E0A9CF40E060E080E00E9410
:1038B000E1158091B7018F5F8093B70182E080931B
:1038C000B6018091B9018111B3CFECCF87EB91E0C4
:1038D0000E9439199091B7019F5F9093B7018111B0
:1038E00009C182E08093B6010E943C1708C187EBB2
:1038F00091E00E946E19EECF87EB91E00E94B6191D
:10390000E9CF87EB91E00E94FB19E4CF87EB91E0D0
:103910000E94481ADFCF87EB91E00E941C18DACF93
:1039200087EB91E00E942118D5CF87EB91E00E94B0
:10393000B017D0CF87EB91E00E94B517CBCF87EBC4
:1039400091E00E947118C6CF87EB91E00E94761833
:10395000C1CF87EB91E00E947B18BCCF87EB91E051
:103960000E948018B7CF87EB91E00E94BA17B2CFC0
:1039700087EB91E00E942618ADCF87EB91E00E9483
:10398000961AA8CF8091B7010E943F17092F409146
:103990007D0450917E0460917F0470918004809139
:1039A000D8039091D903A091DA03B091DB03841777
:1039B0009507A607B70708F04AC00E944E13EAE22F
:1039C0008E9FD00111242B2F332727FD3A953A8360
:1039D0002983F901E857FE4F80819091B80189232E
:1039E0008823A9F10E944E1381FF3AC010E070E0D5
:1039F00080E0612F0E94D314462F672F282F8981E2
:103A00009A810E949F152091790430E1230F08F4D8
:103A10002FEF60E1822F90E00E941413BC0184EF2D
:103A200091E00E94FD3480917D0490917E04A091EC
:103A30007F04B0918004860F971FA11DB11D809354
:103A4000D8039093D903A093DA03B093DB0380915A
:103A5000B7018F5F8093B7010A3208F44BC041CFA2
:103A60000E944E13182F0E944E1330E8839FC0010E
:103A700011247FE7790F80917804BBCF8091B90141
:103A80000091D4031091D5032091D6033091D70330
:103A900040917D0450917E0460917F047091800478
:103AA000401751076207730730F48091B7018F5FA9
:103AB0008093B70116CF811127C08091B7010E9472
:103AC0003F17F92E482F50E05A8349838A01000F8F
:103AD000111F040F151F0A5A1C4FF981FF1508F416
:103AE00052C029E22F1508F46BC08091B7018F5F97
:103AF0008093B7018091B601823009F4F5CE87EB4F
:103B000091E00E94861B94CE40E060E080E00E943D
:103B1000E11506E513E01A8219820E944E1381FF17
:103B200011C0D8011C9211961C92119712961C92EA
:103B3000E981FA813196FA83E9830D5F1F4FBA97C5
:103B400061F7BBCF0E944E13D82E0E944E13B0E8EF
:103B50008B9FC00111247FE7790FE980FA80EE0C7A
:103B6000FF1CE981FA81EE0EFF1E97012A5A3C4F95
:103B700079016D2D809178040E941013D7016D9307
:103B80007D938C93D5CFE981FA81E857FE4F8081F0
:103B90009091B8018923882359F0D80112962C916D
:103BA00012974C9111966C9189819A810E949F1570
:103BB0000D5F1F4FE981FA813196FA83E9838DCF3A
:103BC0008F2D90E0AC01440F551F480F591F4350F3
:103BD000510969E573E086E593E00E941C360E9476
:103BE0004E1381FF25C01092D1031092D203109280
:103BF000D3030E94E91369837A838B839C8380912A
:103C00007D0490917E04A0917F04B091800429816D
:103C10003A814B815C81820F931FA41FB51F809353
:103C2000D4039093D503A093D603B093D7033DCF8D
:103C30000E944E1389830E944E1330E8839FC00177
:103C400011247FE7790F6981809178040E94101315
:103C50006093D1037093D2038093D303CACF809132
:103C6000B901882329F040E060E080E00E94E1157E
:103C70008091B7010E943F17692E40917D045091B9
:103C80007E0460917F047091800480915203909132
:103C90005303A0915403B091550384179507A607C9
:103CA000B70708F088C0609176047091770480911E
:103CB00078040E94D314162F072F782E8AE3E82E5B
:103CC00083E0F82E44E051E05A834983A980BA800A
:103CD00045016701512CD6012D916D01F4018191AF
:103CE0004F0190E0222309F46EC0272D412F602F51
:103CF0000E949F15D5011B968C91272D412F602F77
:103D000090E00E949F15D6018C91F6013197808337
:103D10005394B1E0AB1AB108E5E05E12DCCFA981A3
:103D2000BA8115968C9190E0F7012581222309F440
:103D300055C0272D412F602F0E949F15A981BA8160
:103D400016968C91272D412F602F90E00E949F1591
:103D50000E944E13837091E0811190E0D701159677
:103D60009C93B6E0EB0EF11CE981FA813C96FA8354
:103D7000E983E453F14009F0A9CF0E94E913698374
:103D80007A838B839C8380917D0490917E04A091A3
:103D90007F04B091800429813A814B815C81820F3C
:103DA000931FA41FB51F8093520390935303A093B6
:103DB0005403B09355038091B7018F5F8093B7018F
:103DC00039E263164ACE20E040E060E00E949F1591
:103DD000F501838520E040E060E092CF20E040E004
:103DE00060E00E949F15E981FA81868120E040E031
:103DF00060E0ABCF87EB91E00E94E21A6BCD87EBDE
:103E000091E00E94E71566CD87EB91E00E942519AD
:103E100061CD87EB91E00E9432195CCD49814093DE
:103E2000BA018091750483708093BB010E9499153B
:103E300039CD8091DE0381110E94C81480917D04E8
:103E400090917E04A0917F04B0918004BC01CD01CB
:103E50000E947E2D603171058105910508F4E8CC42
:103E60001092B601E5CCE0915B02F0915C020995FD
:103E70001092810440E150E06FEF70E08AE994E035
:103E80000E942E361092DF0340E150E06FEF70E0A9
:103E900088EF93E00E942E3681E08093DE0348E0B5
:103EA00050E067E170E085E794E00E9435361092BB
:103EB000DE0380917504843010F40E946415089527
:103EC0000895E5E7F4E0908121E092279083109235
:103ED000B6010E942014089580E00E94611F089599
:103EE00081E00E94611F08958091750483708111A3
:103EF00002C01092B601809175048C7F816080931E
:103F00007504089580917504837081111092B60133
:103F1000809175048C7F8093750408958091750459
:103F200083700895982F862F209175042370222383
:103F300089F0992381F0983180F49F73990F990F3C
:103F4000209175042370922B909375041092B60102
:103F50000E942014089591E0F1CF97E1EFCF60E047
:103F60000E94921F089561E00E94921F089580911F
:103F70007504869586950895682F809175048695B9
:103F800086958F5F883108F081E00E94921F089526
:103F900081E00E94BC1F0895682F9091750496954A
:103FA00096958FEF890F913009F487E10E94921F57
:103FB000089581E00E94CC1F0895982F822F2091B0
:103FC00075042370222341F0909376046093770464
:103FD000409378040E942014089520E00E94DD1F81
:103FE00008958091760408958091770408958091D2
:103FF00078040895282FE5E7F4E09181892F90E077
:104000004381628104960E94DD1F089581E00E9431
:10401000FA1F0895282FE5E7F4E08181438162814A
:104020008450990B0E94DD1F089581E00E940A20B0
:104030000895282FE5E7F4E0628134E0630F08F487
:104040006FEF8181438190E00E94DD1F089581E040
:104050000E9419200895282FE5E7F4E0628134E0FA
:10406000631B08F460E08181438190E00E94DD1FC2
:10407000089581E00E942B200895282FE5E7F4E0C1
:10408000438134E0430F08F44FEF8181628190E077
:104090000E94DD1F089581E00E943D200895282F91
:1040A000E5E7F4E0438134E0431B08F440E081811C
:1040B000628190E00E94DD1F089581E00E944F2000
:1040C00008958093790480E00E94201408958091DF
:1040D00079040895E5E7F4E0248134E0230F08F43F
:1040E0002FEF24830E942014089581E00E946A200B
:1040F0000895E5E7F4E0248134E0231B08F420E090
:1041000024830E942014089581E00E94792008955C
:10411000CF93DF93DC01FC01EE0FFF1FEF01CA0F0D
:10412000DB1FC655DB4F8981861306C08881841347
:1041300003C08A81821751F081E080933F04EA0F27
:10414000FB1FE655FB4F618340832283DF91CF91B4
:104150000895FF920F931F93CF93DF93182F062F8D
:10416000F42EC0E0D0E02F2D402F612FCE010E9411
:1041700088202196CA32D105B1F7CDB7DEB7E5E088
:104180000C949C3580913F04882341F06AE270E0F2
:104190008AEA94E00E94382110923F0408950E9418
:1041A000362110923F040895FA01882311F00995F1
:1041B0000895FB01FCCF1F93CF93DF93EC01FB012C
:1041C0001581111151C00E94E30B8272FE01E05271
:1041D000F847E531F10508F047C0E153F94C0C947C
:1041E00066350E94701F812FDF91CF911F91089536
:1041F00049ED5FE168EC7FE10E94D420F4CF48EC08
:104200005FE169ED7FE1F8CF45E150E266E070E201
:10421000F3CF46E050E265E170E2EECF49E350E2D1
:1042200067E270E2E9CF47E250E269E370E2E4CF8F
:104230004DE550E26BE470E2DFCF4BE450E26DE518
:1042400070E2DACF44E850E265E770E2D5CF45E7A7
:1042500050E264E870E2D0CF81E00E94B31FC3CF88
:1042600085E0FBCF8BE0F9CF11E0BDCF539A0895E5
:104270009C01AB016BB1677F7BB17860EFB7F894BD
:10428000CA01880F991F840F951F820F931F8217F1
:10429000930741F4EFBF8FE594E00197F1F700C079
:1042A00000000895D9014D919D0158E07BB90000AF
:1042B00000C047FF6BB9440F000000C000C000C041
:1042C0006BB900C05A9591F7E2CF0E940C0D08958A
:1042D00080E00E94F110817008950E94C4112FEFB8
:1042E00086E791E0215080409040E1F700C0000057
:1042F0000E94C4110E946821882321F00E94652138
:104300000E94C22D08950E946D21089586E00895AF
:1043100050E0440F551F98E1699F400D511D112435
:1043200090E6899F400D511D1124CA018896089579
:104330000F931F93CF93DF938630C8F46430B8F4A3
:104340004C30A8F40E9488218C010E944536C82F69
:10435000D0E0DC2FCC27C80101960E9445369E0193
:10436000282BC901DF91CF911F910F91089580E013
:1043700090E0F8CF0F931F93CF93DF93122F032F6B
:10438000863078F4643068F44C3058F40E94882108
:10439000EC01602F0E946336612FCE0101960E94CE
:1043A0006336DF91CF911F910F9108951F93CF93A3
:1043B000DF93D0E0C0E011C0412F6C2F8D2F0E9401
:1043C000E7029C01412F6C2F8D2F0E94BA211F5FA5
:1043D0001C3091F7CF5FC43011F010E0EDCFDF5FFC
:1043E000D63041F7DF91CF911F910895EF92FF9260
:1043F0000F931F93CF93DF938C01EA017A01E60EAE
:10440000F71ECE15DF0529F4CDB7DEB7E6E00C9434
:104410009B35003482E0180740F4C80188960E945A
:10442000453689930F5F1F4FECCF80E0FACFEF92B4
:10443000FF920F931F93CF93DF938C01EA017A01D0
:10444000E60EF71ECE15DF0529F4CDB7DEB7E6E0A0
:104450000C949B35003482E0180728F46881C80169
:1044600088960E94633621960F5F1F4FEBCF8630F0
:1044700038F4643028F44C3018F40E9498210895E0
:1044800080E090E0089580E1089588E991E0089542
:10449000EF92FF920F931F93CF93DF938C01EA016A
:1044A0007A01E60EF71ECE15DF0529F4CDB7DEB78B
:1044B000E6E00C949B35083981E0180748F4C80100
:1044C00088599D4F0E94453689930F5F1F4FEBCF50
:1044D00080E0FACFEF92FF920F931F93CF93DF9379
:1044E0008C01EA017A01E60EF71ECE15DF0529F4EC
:1044F000CDB7DEB7E6E00C949B35083981E01807AC
:1045000030F46881C80188599D4F0E946336219616
:104510000F5F1F4FEACFCF93DF93C8E6D2E060E092
:10452000CE010E9463362196C11584E0D807B9F701
:10453000DF91CF910895A8E0B0E0E1EAF2E20C94B7
:104540007D35F82E2FE0281708F46FC08FEF93E029
:104550000E944536811169C008E612E0F11038C0AA
:104560001A821982FE01339686E0DF011D928A9538
:10457000E9F76801BFEFCB1ADB0AC8010E94453694
:1045800089831A82882309F450C08130D1F47801DC
:1045900022E0E20EF11CC6010E9445368A83882380
:1045A00009F443C09FEF980F9330F8F4680183E05B
:1045B000C80ED11CC7010E9445368B838823A9F100
:1045C0001C8260E0CE0101960E945A278601D1CF5D
:1045D000011584E0180749F1C8010E9445360F5FB4
:1045E0001F4F8111F5CFFA94B9CF8430B9F402E0AE
:1045F00010E0C701AFEFEA1AFA0A0E944536E1E07F
:10460000F0E0EC0FFD1FE00FF11F8083882369F0BD
:104610008C3731F4FE01E00FF11F12826701D1CF18
:104620000F5F1F4F0730110521F72896E8E00C9423
:104630009935CF93DF93EB0186319C4719F50E94A2
:10464000E30B9D819923A1F08A7A91E0811101C049
:1046500090E090934004882349F085E30E942F2C3A
:104660000E949D0C80E0DF91CF91089589E2F6CF02
:1046700080914004882321F085E30E94462CF0CFEE
:1046800089E2FBCF81E0EFCFCF93DF93EC01FB0119
:104690008581882309F4D2C09E0130572332310529
:1046A00008F0B2C00E94290D9093640480936304C3
:1046B000FE01E150F047E232F10520F4EC51F94CF3
:1046C0000C9466358091630481608093630493C089
:1046D000809164048860809364048DC08091630439
:1046E0008260F3CF809163048460EFCF8091630494
:1046F0008860EBCF809164048160EDCF8091640489
:104700008260E9CF809163048061DFCF8091630490
:104710008062DBCF809163048064D7CF0E947807EA
:10472000809163048068D1CF809163048C60CDCF89
:10473000809164048360CFCF809163048E7FC5CF66
:1047400080916404877FC7CF809163048D7FBDCF44
:10475000809163048B7FB9CF80916304877FB5CF4D
:10476000809164048E7FB7CF809164048D7FB3CF36
:10477000809163048F7EA9CF809163048F7DA5CF44
:10478000809163048F7BA1CF0E947807809163049E
:104790008F779BCF80916304837F97CF8091640450
:1047A0008C7F99CF8091630482FB992790F921E057
:1047B000922790FB82F990FB83F987CF8091640464
:1047C000982F909591708E7F892B90FB81F983CFE4
:1047D00090916304892F8F7B96FF806476CF0E942F
:1047E000780790916304892F97FB87F980586DCFE4
:1047F00081E00E94B40D80916304909164040E9452
:104800002E0D0E94780780E0DF91CF91089580E01F
:10481000F0CF90916304892F8F7E94FF806155CFF4
:1048200090916304892F8E7F90FF81604ECF90918D
:104830006404892F877F93FF88604DCF81E0E4CFA8
:10484000282F35EB2303C001112497FF04C08058A3
:104850009109892F089580589F4FFBCF809147047D
:1048600080FF0DC06091C30170E0660F771F603854
:104870007105C0F561157105B9F1862F089581FFA5
:1048800007C06091C30184E0689FB0011124EFCF9D
:1048900082FF04C06091C30188E0F6CF8091460496
:1048A0008823E9F09091C2016091C30170E08917FB
:1048B00030F093E0660F771F9A95E1F7D8CF869F87
:1048C0009001879F300D112483E0220F331F8A95BA
:1048D000E1F7692F70E0C9010E941135C8CF68E087
:1048E00070E0CBCF8FE7089581E008958091470471
:1048F00080FF0CC06091BF0170E07595679575955C
:1049000067956115710561F1862F089581FF06C0D5
:104910006091BF0170E075956795F3CF6091BF011D
:1049200070E082FD15C0209145042223B1F09091E2
:10493000BE016091BF0170E0291750F4269FA001CD
:10494000279F500D1124692F70E0CA010E94113574
:1049500060387105B0F28FE7089561E070E0D4CF60
:1049600081E0089590914A0420914B04922B20916C
:104970004D04922B20914C04922B992331F098E016
:104980009093460491E0909345048D3C31F40E944D
:104990002E24819580934B040895E2E3E80FE231E1
:1049A000B0F5F0E0EA5FF84C0C9466350E942E24D6
:1049B000F1CF0E942E24819580934A0408950E948D
:1049C0002E24FACF0E94762480934C0408950E94EE
:1049D00076248195F9CF0E947624819580934D04A9
:1049E00008950E947624FACF815D990B21E030E092
:1049F00001C0220F8A95EAF780914904822B8093A7
:104A00004904089580914704816080934704089584
:104A1000809147048260F9CF809147048460F5CF8C
:104A200040914A048D3C59F480914B0487FF0DC09E
:104A300010924B04442359F41092460408C08E3C53
:104A400081F480914B0418169CF3442381F08091EB
:104A50004C0490914D04892B811159C0109245044A
:104A600008958F3C41F447FFF0CF10924A048091A3
:104A70004B048823E0CF803D19F41416B4F3E5CF3E
:104A800090914C04893D29F41916FCF610924C04BF
:104A9000DCCF8A3D19F497FFD8CFF8CF90914D0421
:104AA0008B3D29F497FFD1CF10924D04CECF8C3D92
:104AB00019F41916CCF3C9CF9FE2980F983090F4EF
:104AC000815D990B21E030E0B90102C0660F771FCC
:104AD0008A95E2F7CB0180959091490489238093D0
:104AE0004904B3CF8D3D31F4809147048E7F80938C
:104AF0004704ABCF8E3D21F4809147048D7FF7CFE3
:104B00008F3D09F0A2CF809147048B7FF0CF0895AD
:104B10000E94462D20914A0430914B04232B2223DE
:104B200021F0809343049093440420914C043091ED
:104B30004D04232B222321F08093410490934204BF
:104B400088E494E00E94252B089586E0E8E4F4E0F0
:104B5000DF011D928A95E9F71092460410924504F0
:104B6000109247040895FC01828181110DC0838158
:104B700081110AC08481811107C081E09581911162
:104B800001C080E08170089581E0FCCFA6E0B0E034
:104B9000ECECF5E20C94803586E0E8E4F4E09E016C
:104BA0002F5F3F4FD90101900D928A95E1F7109246
:104BB0004A0410924B0410924C0410924D048B81C5
:104BC0009C81892B8901882391F0809143049091E5
:104BD00044040E946F2D9C01809146048823C9F1F2
:104BE0004091C40150E04217530708F43FC08D8143
:104BF0009E81892B882399F08091410490914204F1
:104C00000E946F2D9C0180914504882309F467C0A0
:104C10004091C00150E04217530708F46EC0B8013C
:104C200088E494E00E94772C811105C088E494E028
:104C30000E94B32581110E94882586E0F801A8E42E
:104C4000B4E001900D928A95E1F72696E5E00C9488
:104C50009C354091C5019AE0499FA001112442175B
:104C6000530728F68F5F8093460402C08F3FD1F729
:104C7000FB80FF2059F00E942E2491E01F140CF0BD
:104C80009FEF899F802D112480934A04FC80FF2090
:104C900059F00E942E2491E01F140CF09FEF899F81
:104CA000802D112480934B0480914A04882309F4B9
:104CB0009ECFF0904B04FF2009F499CF0E9420244E
:104CC000811101C081E080934A048F2D0E9420242D
:104CD000882319F080934B048ACF81E0FBCF409169
:104CE000C1019AE0499FA00111244217530708F01F
:104CF00096CF8F5F8093450402C08F3FD1F7FD8030
:104D0000FF2059F00E94762491E01F140CF09FEFD1
:104D1000899F802D112480934C04FE80FF2059F040
:104D20000E94762491E01F140CF09FEF899F802D44
:104D3000112480934D0480914C04882309F46FCF93
:104D4000F0904D04FF2009F46ACF0E9420248111C5
:104D500001C081E080934C048F2D0E942024882381
:104D600019F080934D045BCF81E0FBCFA0E0B0E071
:104D7000ECEBF6E20C947C35E82FF0E0E45DFC4FC0
:104D8000B490282F26952695269530E0F901E45316
:104D9000FC4F0491877010E0082E02C0159507950E
:104DA0000A94E2F701701127F901E454FC4FE490F2
:104DB000F12C082E02C0F594E7940A94E2F791E0F2
:104DC000E922FF24F901E455FC4FC491D0E002C070
:104DD000D595C7958A95E2F7C170DD27C62ED12CEF
:104DE0000115110549F5E114F10431F086EE0E9438
:104DF0008904C601009771F5B6018B2D0E94040548
:104E0000C601009779F5E114F104A1F5011511052A
:104E100031F081EE0E94D104C6010097C9F5CD2B77
:104E200031F08CE20E941C05C114D104C9F5CDB744
:104E3000DEB7E9E00C94983581EE0E948904C60142
:104E4000009789F2EFE9FFE03197F1F700C0000029
:104E50000197F6CFEFE9FFE03197F1F700C00000CE
:104E60000197C8CFEFE9FFE03197F1F700C00000EC
:104E70000197C7CF86EE0E94D104C601009731F298
:104E8000EFE9FFE03197F1F700C000000197F6CF9E
:104E9000EFE9FFE03197F1F700C000000197BDCFC7
:104EA0008FE99FE00197F1F700C0000091E0C91A77
:104EB000D108BACFEF92FF921F93CF93DF93EC010B
:104EC000162F8881882309F45AC0813009F053C015
:104ED0008981813071F47E0182E0E80EF11C8A81C3
:104EE0000E941C05E701812F90E00097E1F52196D3
:104EF000E8CF823041F47E01E2E0EE0EF11C8A81BF
:104F00000E948904EFCF833041F47E01F2E0EF0E7E
:104F1000F11C8A810E94D104E5CF843011F02196E2
:104F2000E2CF2A81229680E090E06AE0AE014F5FF6
:104F30005F4F2053330B2A30310550F0009799F220
:104F4000EFE9FFE03197F1F700C000000197F6CFDD
:104F5000689FF001699FF00D1124C9018E0F9F1FFA
:104F60002981EA01E3CFEFE9FFE03197F1F700C0D3
:104F700000000197BACF612F0E94B626B8CFDF910B
:104F8000CF911F91FF90EF9008950F931F93CF93B0
:104F9000DF93C42FD22FFC0185818823C9F0409371
:104FA00050040E94462D90934F0480934E0480E25B
:104FB0008C0F883040F4C77081E001C0880FCA951B
:104FC000EAF70E942505DF91CF911F910F91089577
:104FD0001091500414133CC080914E0490914F04E2
:104FE0000E946F2D883C910598F5C0E2CD0F1D17EA
:104FF00041F180E2810F883040F4177081E001C0F8
:10500000880F1A95EAF70E942C05C83020F0802FEF
:105010000E941C05D8CF91E08D2F877001C0990F99
:105020008A95EAF7892F0E942505802F0E941C058A
:10503000D77081E001C0880FDA95EAF70E942C054D
:10504000C2CF802F0E941C05C83008F0BCCFF0CF23
:1050500080E28C0F883008F0B6CFC77081E001C0C5
:10506000880FCA95EAF7EACF0F93FC01CB01E8510C
:10507000FC47E730F10590F5E85EF84C0C94663596
:1050800006E221EE41EE6AE17CE70E94C52780E05E
:105090000F91089507E225EE45EE6BE17CE7F5CF31
:1050A00006E221EE40EE68E17CE7EFCF07E225EE75
:1050B00044EE69E17CE7E9CF06E221EE42EE6CE1E5
:1050C0007CE7E3CF07E225EE46EE6DE17CE7DDCF3E
:1050D00008E221E045EE6EE17CE7D7CFFB01858158
:1050E00081111092500481E0D3CFCF93DF939C01C4
:1050F000FB0127378CE7380739F028373C47F1F0B8
:1051000081E0DF91CF9108958581882391F00E94FD
:10511000A7280E94F2070E94AD28D82F0E94AA2833
:10512000C82F0E94A7284D2F6C2F0E94240980E0D1
:10513000E8CF0E94A7280E94FE07EDCF8581882333
:1051400019F00E94AA28E5CF0E94AA28F4CF8091E6
:10515000C80108958091C70108958091C6010895FE
:1051600084E290E00E944536843289F485E290E042
:105170000E944536893059F486E290E00E94453617
:1051800091E0813009F090E0892F8170089580E0EE
:10519000FCCF882381F064E284E290E00E946336D1
:1051A00069E085E290E00E94633661E086E290E08B
:1051B0000E94633608956FEF84E290E00E946336A8
:1051C0006FEF85E290E00E9463366FEFEFCF0895B6
:1051D000A4E0B0E0EEEEF8E20C94833587E290E0D4
:1051E0000E944536282F30E040E050E0CA01B90166
:1051F0002496E2E00C949F350895CF93C62F0E9429
:10520000FC286C2F87E290E00E946336CF910895CE
:1052100080E00E94C92860E070E0CB010E94FD2878
:105220000E94D6210E948B2281E00E94C928089505
:105230000E94E7280E94E8280E94FC280E94B028CB
:10524000811102C00E94082908950E946C1F0895D0
:105250009C01FB018581882351F0A90157574038F3
:10526000510530F4822F0E949B2280E0089581E056
:1052700008952FEFFC012083089580E00895CF93D7
:10528000DF93EC0188818330E1F038F4813071F0F4
:10529000823081F0DF91CF9108958430D9F70E9458
:1052A000F11F89830E94F41F8A83F4CF0E94F71FA5
:1052B0008983F0CF0E948E1F8823D1F30E94B71FED
:1052C000F7CF0E946720F4CF1F93CF93DF93EC01B9
:1052D0008881833069F140F4813071F08230E1F0EF
:1052E000DF91CF911F9108958430D1F70E94F71F6D
:1052F000482F89816A810CC019812FEF129F112DCF
:1053000011240E94F41FC82F0E94F11F412F6C2FFF
:1053100090E00E94ED1FE4CF8981811103C00E94BB
:10532000821FDECF0E94741F89810E94AF1FD8CFD9
:1053300089810E946120D4CFFC019C012E5F3F4FE8
:105340009081983041F0993051F0973059F4C9016B
:105350000E9464290895C9010E943F2908950E946E
:10536000611508958FEF80830895FC01218123301A
:1053700019F40E949C2908950E9439290895CF921A
:10538000DF92FF920F931F93CF93DF93CDB7DEB7DA
:105390002E970FB6F894DEBF0FBECDBF8D839E83D0
:1053A000F62E8D819E810E943D29811115C0AD810F
:1053B000BE81EC91E150E33140F5F0E0E15EF84C64
:1053C0000C946635ED81FE8111828CE082836F2D15
:1053D0008D819E810E94312E2E960FB6F894DEBFED
:1053E0000FBECDBFDF91CF911F910F91FF90DF9046
:1053F000CF900895AD81BE8111968C91833099F143
:1054000048F4813081F08230E9F08FEFAD81BE81C8
:105410008C93DDCF8430C9F7ED81FE811282138237
:1054200014821582D4CF0E94522D0E946C356F8356
:10543000788789879A87ED81FE816283738384836D
:105440009583C5CF0E94E8280E946C356B877C87C6
:105450008D879E87AD81BE8112966D937D938D93CE
:105460009C931597B4CFED81FE81028110E06F010E
:10547000B2E0CB0ED11C043011050CF0A8CF802F68
:105480000E94F110D60111969C93119712968C935D
:105490000F5F1F4FEDCFED81FE818181823049F09A
:1054A000853009F0B2CFED81FE8182810E942529ED
:1054B0008ECFAD81BE8112968D919D910D90BC9144
:1054C000A02D89839A83AB83BC83BC01CD010E944C
:1054D0006C350E94FD287BCFAD81BE8113964C9127
:1054E000139712966C91129711968C910E949821A5
:1054F000982789279827ED81FE819583848367CF3C
:10550000AD81BE8114962D913C91159732272327AA
:10551000322713964C91139712966C91129711960D
:105520008C910E94BA2153CF0E94D62150CF6F2D6B
:105530008D819E810E94B5294ACF0E944322ED8130
:10554000FE81818344CF0E9445229827892798278E
:10555000AD81BE8112969C938E93119738CFED81C9
:10556000FE81638170E081819281AF014C5F5F4F6A
:105570009827892798270E94482229CFAD81BE818C
:1055800013966C91139770E011968D919C911297E0
:10559000AD014C5F5F4F9827892798270E946A22A8
:1055A00016CF0E948B2213CF0E948621C8CFAD81D7
:1055B000BE8113966C91139770E011968D919C911A
:1055C0001297AD014C5F5F4F9827892798270E945B
:1055D000F621FDCEED81FE81638170E081819281B3
:1055E000AF014C5F5F4F9827892798270E941722A9
:1055F000EECE90935604809355040895E09155049F
:10560000F0915604309729F00190F081E02D099532
:10561000089580E00895E0915504F0915604309784
:1056200021F00280F381E02D09950895DC01E091DD
:105630005504F0915604309739F086E08C9304803D
:10564000F581E02DCD0109950895DC01E091550427
:10565000F0915604309739F082E08C930680F78100
:10566000E02DCD0109950895A3E0B0E0EAE3FBE267
:105670000C9483359C0180915304909154048217BB
:105680009307A1F03093540420935304E091550400
:10569000F0915604309751F083E089833B832A834D
:1056A0000084F185E02DCE01019609952396E2E074
:1056B0000C949F35A3E0B0E0E0E6FBE20C94833568
:1056C0009C01809151049091520482179307A1F09C
:1056D0003093520420935104E0915504F091560404
:1056E000309751F084E089833B832A830084F185DD
:1056F000E02DCE01019609952396E2E00C949F35AA
:105700002091B4013091B5012E5F3F4F8091D301BC
:105710008823A9F08091630487FF11C02091B20112
:105720003091B3012E5F3F4F9DE180E0F901408150
:105730002F5F3F4F41118F5F9150C0F7089595E063
:10574000F4CF882321F19091D301992311F1909105
:10575000630497FF1EC0982F969596959695803F67
:10576000B0F4E091B201F091B301E90FF11D228193
:1057700030E0877041E050E0BA0102C0660F771F49
:105780008A95E2F72623372381E0232B91F480E0EA
:1057900008952091B4013091B501F9013296285F46
:1057A0003F4F9191981721F0E217F307D1F7EFCF10
:1057B00081E008959C01FC0132968FEF90E04191C9
:1057C000461751F08F3F19F4411101C0892F9F5F97
:1057D0009630A9F78F3F09F40895280F311D87FDF2
:1057E0003A95F901628308959C01FC013296285F85
:1057F0003F4F8191861303C0DF0111971C92E2177E
:10580000F307B9F70895FC01862F8695869586954E
:10581000603F60F4E80FF11D677021E030E001C0E7
:10582000220F6A95EAF78281822B82830895FC0118
:10583000862F869586958695603F80F4E80FF11D4A
:10584000677081E090E09C0102C0220F331F6A95CF
:10585000E2F7B90160958281682362830895682F19
:105860008091D301882359F08091630487FF07C09A
:105870008091B2019091B3010E94032C0895809110
:10588000B4019091B5010E94DA2B0895682F8091A0
:10589000D301882359F08091630487FF07C080916A
:1058A000B2019091B3010E94172C08958091B40128
:1058B0009091B5010E94F42B08958091D301882323
:1058C00079F08091630487FF0BC0E091B201F09101
:1058D000B30132968EE1DF011D928A95E9F70895B2
:1058E000E091B401F091B501329686E0F4CFDC018D
:1058F000FB0111969C9111978181981322C01296F9
:105900008C911297882319F0928189131AC01396EB
:105910008C911397882319F09381891312C01596DF
:105920008C911597882319F0958189130AC01496D4
:105930009C91992321F081E02481291303C080E008
:1059400001C081E08170089508950E94A42C0895FB
:105950008F5F809357040E94A52C089583E0809365
:1059600057040E94A52C08950E94A82C089581E058
:10597000809357040E94A52C08950E94B72C089587
:10598000089508950E94C12C0895089508950E94D5
:10599000C02C0895CF930E94C52C0E94C4110E9470
:1059A000C62CC0E08C2F0E94F110892B31F4CF5F00
:1059B000C430C1F780E0CF91089581E0FCCF85B776
:1059C000806885BF85B7806885BF08951F921FB620
:1059D0001F9211248F939F93AF93BF93809158048C
:1059E000811113C08091280590912905A0912A0565
:1059F000B0912B054196A11DB11D80932805909370
:105A00002905A0932A05B0932B05BF91AF919F91D3
:105A10008F911F901FBE1F90189580913005843084
:105A200031F10E94F5031092580488E190E020E4DF
:105A30000FB6F894A895809360000FBE2093600085
:105A400083B7817F846083BF83B7816083BF78948D
:105A5000889583B78E7F83BF0FB6F894A895809101
:105A60006000886180936000109260000FBE08950E
:105A70000E9478070E94FF03089582E084BD93E0AE
:105A800095BD9AEF97BD80936E0008952FB7F89457
:105A90008091280590912905A0912A05B0912B05A8
:105AA0002FBF0895A4E0B0E0E8E5FDE20C94833553
:105AB0008FB7F894209128053091290540912A0547
:105AC00050912B0529833A834B835C838FBF698177
:105AD0007A818B819C812496E2E00C949F359C0115
